S016000053657269616C5F636F6E74726F6C2E737265634E
S11300000C942A000C9447000C9447000C9447006D
S11300100C9447000C9447000C9447000C94470040
S11300200C9447000C9447000C9447000C94470030
S11300300C9447000C9404010C942B010C9447007D
S11300400C9447000C9447000C9447000C94470010
S11300500C94470011241FBECFE5D8E0DEBFCDBF0E
S113006010E0A0E6B0E0E8E3F3E002C005900D92F2
S1130070AC38B107D9F720E0ACE8B0E001C01D927C
S1130080A539B207E1F70E946C010C949A010C9413
S11300900000CF930E94FD00C82F81E990E00E94E8
S11300A0D200892B39F00E949B0080E690E00E94E8
S11300B0A5000BC061E970E08C2F0E94B4000E947F
S11300C09B008EE690E00E94A500CF91089580E009
S11300D00E94EE0089E490E00E94FF000895EFE999
S11300E0FFE03197F1F700C00000AD98AE9888BBEF
S11300F0AF9AAF9808958FEF87BBA59AA69AA79A4F
S113010081E00E946F0086E00E946F008CE00E94F4
S11301106F0088E30E946F00A49AAC9A0895EFE9F7
S1130120FFE03197F1F700C00000AD9AAE9888BBAC
S1130130AF9AAF9808958FE99FE00197F1F700C057
S1130140000081E00E946F000895CF93DF93EC01DB
S11301508881882331F021960E948F008991811132
S1130160FBCFDF91CF910895FB019081E90FF11D41
S113017081839F5FFB0190830895FB0120812150BF
S11301802083E20FF11D2181FC012083089521E0E9
S113019030E0FC018081882311F020E030E0822FE0
S11301A0932F089521E030E0FC018081833010F426
S11301B020E030E0822F932F0895FC0110820895EF
S11301C020B52F7720BD90BD89B980B5806880BDEA
S11301D088E18AB980B58E6080BD0895813031F0A0
S11301E018F0823031F404C0579A03C0569A01C003
S11301F0559A8FB780688FBF08958CB108959093F6
S11302008D0080938C0008951F920F920FB60F9269
S113021011242F933F934F935F936F937F938F9307
S11302209F93AF93BF93EF93FF93E0918C00F09172
S11302308D000995FF91EF91BF91AF919F918F919F
S11302407F916F915F914F913F912F910F900FBECE
S11302500F901F9018951F920F920FB60F921124B2
S11302602F933F934F935F936F937F938F939F93BA
S1130270AF93BF93EF93FF93E0918E00F0918F00C3
S11302800995FF91EF91BF91AF919F918F917F91CC
S11302906F915F914F913F912F910F900FBE0F90EF
S11302A01F901895C89910C080919000811110C0BA
S11302B08FE19EE40197F1F700C00000C8990AC0DD
S11302C081E08093900008951092900080E008955A
S11302D080E0089580E00895CF93DF931F92CDB717
S11302E0DEB781E990E00E94DD000E947B0083E399
S11302F090E00E94E0000E9467000E94520188235F
S1130300E1F381E990E00E94C700019739F40E946B
S11303109B008CE790E00E94A500EFCF61E970E0BC
S1130320CE0101960E94BD000E949B0089810E941B
S10B03308F00E3CFF894FFCF26
S1130338737461636B2069732066756C6C007072EA
S1130348657373207468652062746E0073746163E6
S10F03586B20697320656D7074790000DF
S9030000FC
