S016000053657269616C5F636F6E74726F6C2E737265634E
S11300000C942A000C9447000C9447000C9447006D
S11300100C9447000C9447000C9447000C94470040
S11300200C9447000C9447000C9447000C94470030
S11300300C9447000C9408010C942F010C94470075
S11300400C9447000C9447000C9447000C94470010
S11300500C94470011241FBECFE5D8E0DEBFCDBF0E
S113006010E0A0E6B0E0E0E6F3E002C005900D92F7
S1130070A239B107D9F720E0A2E9B0E001C01D928E
S1130080AA39B207E1F70E9470010C94AE010C94F6
S11300900000CF930E940101C82F87E990E00E94DD
S11300A0D200892B39F00E949B0080E690E00E94E8
S11300B0A5000BC067E970E08C2F0E94B4000E9479
S11300C09B008EE690E00E94A500CF91089580E009
S11300D00E94F20089E490E00E9403010895EFE990
S11300E0FFE03197F1F700C00000AD98AE9888BBEF
S11300F0AF9AAF9808958FEF87BBA59AA69AA79A4F
S113010081E00E946F0086E00E946F008CE00E94F4
S11301106F0088E30E946F00A49AAC9A0895EFE9F7
S1130120FFE03197F1F700C00000AD9AAE9888BBAC
S1130130AF9AAF9808958FE99FE00197F1F700C057
S1130140000081E00E946F000895CF93DF93EC01DB
S11301508881882331F021960E948F008991811132
S1130160FBCFDF91CF910895FB019081E90FF11D41
S113017081839F5FFB0190830895FB0120812150BF
S11301802083E20FF11D2181FC012083089521E0E9
S113019030E0FC018081882311F020E030E0822FE0
S11301A0932F089521E030E0FC018081823010F427
S11301B020E030E0822F932F0895FC0110820895EF
S11301C020B52F7720BD90BD89B980B5806880BDEA
S11301D088E18AB980B5866080BD08955D9BFECFB5
S11301E08CB90895813031F018F0823031F404C0B4
S11301F0579A03C0569A01C0559A8FB780688FBF2B
S113020008958CB10895909393008093920008957B
S11302101F920F920FB60F9211242F933F934F9377
S11302205F936F937F938F939F93AF93BF93EF935A
S1130230FF93E0919200F09193000995FF91EF9163
S1130240BF91AF919F918F917F916F915F914F91EA
S11302503F912F910F900FBE0F901F9018951F92F2
S11302600F920FB60F9211242F933F934F935F93E6
S11302706F937F938F939F93AF93BF93EF93FF936A
S1130280E0919400F09195000995FF91EF91BF9151
S1130290AF919F918F917F916F915F914F913F911A
S11302A02F910F900FBE0F901F901895C89910C0F2
S11302B080919600811110C08FE19EE40197F1F7BF
S11302C000C00000C8990AC081E080939600089598
S11302D01092960080E0089580E0089580E00895EB
S11302E0CF93DF931F92CDB7DEB787E990E00E94EA
S11302F0DD000E947B008CE790E00E94A5002FEFB8
S113030089E698E1215080409040E1F700C0000068
S113031083E390E00E94E00080E30E94EE000E94EC
S113032067000E9456018823E1F387E990E00E9468
S1130330C700019739F40E949B0082E890E00E9474
S1130340A500EFCF67E970E0CE0101960E94BD00E1
S11303500E949B0089810E948F00E3CFF894FFCF15
S1130360737461636B2069732066756C6C007072C2
S1130370657373207468652062746E0068656C6CC4
S11303806F00737461636B20697320656D70747999
S1050390000067
S9030000FC
